{
  "_format": "hh-sol-artifact-1",
  "contractName": "NoseStaking",
  "sourceName": "contracts/NoseStaking.sol",
  "abi": [
    {
      "inputs": [],
      "stateMutability": "nonpayable",
      "type": "constructor"
    },
    {
      "anonymous": false,
      "inputs": [
        {
          "indexed": true,
          "internalType": "address",
          "name": "addr",
          "type": "address"
        },
        {
          "indexed": true,
          "internalType": "address",
          "name": "from",
          "type": "address"
        },
        {
          "indexed": false,
          "internalType": "uint256",
          "name": "amount",
          "type": "uint256"
        }
      ],
      "name": "MatchPayout",
      "type": "event"
    },
    {
      "anonymous": false,
      "inputs": [
        {
          "indexed": true,
          "internalType": "address",
          "name": "addr",
          "type": "address"
        },
        {
          "indexed": false,
          "internalType": "uint256",
          "name": "amount",
          "type": "uint256"
        },
        {
          "indexed": false,
          "internalType": "uint8",
          "name": "tarif",
          "type": "uint8"
        }
      ],
      "name": "NewDeposit",
      "type": "event"
    },
    {
      "anonymous": false,
      "inputs": [
        {
          "indexed": true,
          "internalType": "address",
          "name": "addr",
          "type": "address"
        },
        {
          "indexed": false,
          "internalType": "uint256",
          "name": "amount",
          "type": "uint256"
        },
        {
          "indexed": false,
          "internalType": "uint256",
          "name": "date",
          "type": "uint256"
        },
        {
          "indexed": false,
          "internalType": "uint256",
          "name": "last_payout",
          "type": "uint256"
        }
      ],
      "name": "NewWithdraw",
      "type": "event"
    },
    {
      "anonymous": false,
      "inputs": [
        {
          "indexed": true,
          "internalType": "address",
          "name": "addr",
          "type": "address"
        },
        {
          "indexed": true,
          "internalType": "address",
          "name": "upline",
          "type": "address"
        },
        {
          "indexed": false,
          "internalType": "uint256",
          "name": "bonus",
          "type": "uint256"
        }
      ],
      "name": "Upline",
      "type": "event"
    },
    {
      "inputs": [
        {
          "internalType": "uint8",
          "name": "_index",
          "type": "uint8"
        },
        {
          "internalType": "uint256",
          "name": "stake_amount",
          "type": "uint256"
        }
      ],
      "name": "calcFee",
      "outputs": [
        {
          "internalType": "uint256",
          "name": "stake_val",
          "type": "uint256"
        },
        {
          "internalType": "uint256",
          "name": "fee",
          "type": "uint256"
        }
      ],
      "stateMutability": "view",
      "type": "function"
    },
    {
      "inputs": [
        {
          "internalType": "string",
          "name": "tsymbol",
          "type": "string"
        },
        {
          "internalType": "uint256",
          "name": "stake_amount",
          "type": "uint256"
        }
      ],
      "name": "calcFeeBySimbol",
      "outputs": [
        {
          "internalType": "uint256",
          "name": "stake_val",
          "type": "uint256"
        },
        {
          "internalType": "uint256",
          "name": "fee",
          "type": "uint256"
        }
      ],
      "stateMutability": "view",
      "type": "function"
    },
    {
      "inputs": [
        {
          "internalType": "uint8",
          "name": "",
          "type": "uint8"
        }
      ],
      "name": "coins",
      "outputs": [
        {
          "internalType": "string",
          "name": "name",
          "type": "string"
        },
        {
          "internalType": "string",
          "name": "symbol",
          "type": "string"
        },
        {
          "internalType": "string",
          "name": "chain",
          "type": "string"
        },
        {
          "internalType": "address",
          "name": "addr",
          "type": "address"
        },
        {
          "internalType": "uint256",
          "name": "staked_value",
          "type": "uint256"
        },
        {
          "internalType": "uint8",
          "name": "users",
          "type": "uint8"
        },
        {
          "internalType": "string",
          "name": "country",
          "type": "string"
        },
        {
          "internalType": "uint256",
          "name": "fee",
          "type": "uint256"
        }
      ],
      "stateMutability": "view",
      "type": "function"
    },
    {
      "inputs": [
        {
          "internalType": "uint8",
          "name": "_index",
          "type": "uint8"
        }
      ],
      "name": "coinsInfo",
      "outputs": [
        {
          "internalType": "string",
          "name": "name",
          "type": "string"
        },
        {
          "internalType": "string",
          "name": "symbol",
          "type": "string"
        },
        {
          "internalType": "string",
          "name": "chain",
          "type": "string"
        },
        {
          "internalType": "address",
          "name": "addr",
          "type": "address"
        },
        {
          "internalType": "uint256",
          "name": "staked_value",
          "type": "uint256"
        },
        {
          "internalType": "uint8",
          "name": "users",
          "type": "uint8"
        },
        {
          "internalType": "string",
          "name": "country",
          "type": "string"
        },
        {
          "internalType": "uint256",
          "name": "fee",
          "type": "uint256"
        }
      ],
      "stateMutability": "view",
      "type": "function"
    },
    {
      "inputs": [
        {
          "internalType": "string",
          "name": "tsymbol",
          "type": "string"
        }
      ],
      "name": "coinsInfoBySymbol",
      "outputs": [
        {
          "internalType": "string",
          "name": "name",
          "type": "string"
        },
        {
          "internalType": "string",
          "name": "symbol",
          "type": "string"
        },
        {
          "internalType": "string",
          "name": "chain",
          "type": "string"
        },
        {
          "internalType": "address",
          "name": "addr",
          "type": "address"
        },
        {
          "internalType": "uint256",
          "name": "staked_value",
          "type": "uint256"
        },
        {
          "internalType": "uint8",
          "name": "users",
          "type": "uint8"
        },
        {
          "internalType": "string",
          "name": "country",
          "type": "string"
        },
        {
          "internalType": "uint256",
          "name": "fee",
          "type": "uint256"
        }
      ],
      "stateMutability": "view",
      "type": "function"
    },
    {
      "inputs": [],
      "name": "coinsInfo_length",
      "outputs": [
        {
          "internalType": "uint8",
          "name": "",
          "type": "uint8"
        }
      ],
      "stateMutability": "view",
      "type": "function"
    },
    {
      "inputs": [],
      "name": "contractInfo",
      "outputs": [
        {
          "internalType": "uint256",
          "name": "_invested",
          "type": "uint256"
        },
        {
          "internalType": "uint256",
          "name": "_withdrawn",
          "type": "uint256"
        },
        {
          "internalType": "uint256",
          "name": "_match_bonus",
          "type": "uint256"
        }
      ],
      "stateMutability": "view",
      "type": "function"
    },
    {
      "inputs": [],
      "name": "currentTime",
      "outputs": [
        {
          "internalType": "uint256",
          "name": "timestamp",
          "type": "uint256"
        }
      ],
      "stateMutability": "view",
      "type": "function"
    },
    {
      "inputs": [
        {
          "internalType": "uint8",
          "name": "_tarif",
          "type": "uint8"
        },
        {
          "internalType": "address",
          "name": "_upline",
          "type": "address"
        }
      ],
      "name": "deposit",
      "outputs": [],
      "stateMutability": "payable",
      "type": "function"
    },
    {
      "inputs": [],
      "name": "deposit_fee",
      "outputs": [
        {
          "internalType": "uint256",
          "name": "",
          "type": "uint256"
        }
      ],
      "stateMutability": "view",
      "type": "function"
    },
    {
      "inputs": [],
      "name": "invested",
      "outputs": [
        {
          "internalType": "uint256",
          "name": "",
          "type": "uint256"
        }
      ],
      "stateMutability": "view",
      "type": "function"
    },
    {
      "inputs": [],
      "name": "match_bonus",
      "outputs": [
        {
          "internalType": "uint256",
          "name": "",
          "type": "uint256"
        }
      ],
      "stateMutability": "view",
      "type": "function"
    },
    {
      "inputs": [],
      "name": "maxWithdrawAmount",
      "outputs": [
        {
          "internalType": "uint256",
          "name": "",
          "type": "uint256"
        }
      ],
      "stateMutability": "view",
      "type": "function"
    },
    {
      "inputs": [],
      "name": "minDepositAmount",
      "outputs": [
        {
          "internalType": "uint256",
          "name": "",
          "type": "uint256"
        }
      ],
      "stateMutability": "view",
      "type": "function"
    },
    {
      "inputs": [],
      "name": "owner",
      "outputs": [
        {
          "internalType": "address",
          "name": "",
          "type": "address"
        }
      ],
      "stateMutability": "view",
      "type": "function"
    },
    {
      "inputs": [
        {
          "internalType": "address",
          "name": "_addr",
          "type": "address"
        }
      ],
      "name": "payoutOf",
      "outputs": [
        {
          "internalType": "uint256",
          "name": "value",
          "type": "uint256"
        }
      ],
      "stateMutability": "view",
      "type": "function"
    },
    {
      "inputs": [
        {
          "internalType": "address",
          "name": "",
          "type": "address"
        }
      ],
      "name": "players",
      "outputs": [
        {
          "internalType": "address",
          "name": "upline",
          "type": "address"
        },
        {
          "internalType": "uint256",
          "name": "dividends",
          "type": "uint256"
        },
        {
          "internalType": "uint256",
          "name": "match_bonus",
          "type": "uint256"
        },
        {
          "internalType": "uint40",
          "name": "last_payout",
          "type": "uint40"
        },
        {
          "internalType": "uint256",
          "name": "total_invested",
          "type": "uint256"
        },
        {
          "internalType": "uint256",
          "name": "total_withdrawn",
          "type": "uint256"
        },
        {
          "internalType": "uint256",
          "name": "total_match_bonus",
          "type": "uint256"
        }
      ],
      "stateMutability": "view",
      "type": "function"
    },
    {
      "inputs": [
        {
          "internalType": "uint256",
          "name": "",
          "type": "uint256"
        }
      ],
      "name": "ref_bonuses",
      "outputs": [
        {
          "internalType": "uint8",
          "name": "",
          "type": "uint8"
        }
      ],
      "stateMutability": "view",
      "type": "function"
    },
    {
      "inputs": [
        {
          "internalType": "bool",
          "name": "_tradeStatus",
          "type": "bool"
        }
      ],
      "name": "setTradeOn",
      "outputs": [],
      "stateMutability": "nonpayable",
      "type": "function"
    },
    {
      "inputs": [
        {
          "internalType": "uint8",
          "name": "",
          "type": "uint8"
        }
      ],
      "name": "tarifs",
      "outputs": [
        {
          "internalType": "uint8",
          "name": "life_days",
          "type": "uint8"
        },
        {
          "internalType": "uint256",
          "name": "percent",
          "type": "uint256"
        }
      ],
      "stateMutability": "view",
      "type": "function"
    },
    {
      "inputs": [],
      "name": "tradeOn",
      "outputs": [
        {
          "internalType": "bool",
          "name": "",
          "type": "bool"
        }
      ],
      "stateMutability": "view",
      "type": "function"
    },
    {
      "inputs": [
        {
          "internalType": "address",
          "name": "_owner",
          "type": "address"
        }
      ],
      "name": "transferOwnership",
      "outputs": [],
      "stateMutability": "nonpayable",
      "type": "function"
    },
    {
      "inputs": [
        {
          "internalType": "address",
          "name": "_addr",
          "type": "address"
        }
      ],
      "name": "userInfo",
      "outputs": [
        {
          "internalType": "uint256",
          "name": "for_withdraw",
          "type": "uint256"
        },
        {
          "internalType": "uint256",
          "name": "total_invested",
          "type": "uint256"
        },
        {
          "internalType": "uint256",
          "name": "total_withdrawn",
          "type": "uint256"
        },
        {
          "internalType": "uint256",
          "name": "total_match_bonus",
          "type": "uint256"
        },
        {
          "internalType": "uint256",
          "name": "last_payout",
          "type": "uint256"
        },
        {
          "internalType": "uint256",
          "name": "player_match_bonus",
          "type": "uint256"
        },
        {
          "components": [
            {
              "internalType": "uint8",
              "name": "tarif",
              "type": "uint8"
            },
            {
              "internalType": "uint256",
              "name": "amount",
              "type": "uint256"
            },
            {
              "internalType": "uint40",
              "name": "time",
              "type": "uint40"
            }
          ],
          "internalType": "struct Deposit[]",
          "name": "deposits",
          "type": "tuple[]"
        },
        {
          "components": [
            {
              "internalType": "uint256",
              "name": "amount",
              "type": "uint256"
            },
            {
              "internalType": "uint40",
              "name": "time",
              "type": "uint40"
            }
          ],
          "internalType": "struct Withdraw[]",
          "name": "withdraws",
          "type": "tuple[]"
        },
        {
          "internalType": "uint256[3]",
          "name": "structure",
          "type": "uint256[3]"
        }
      ],
      "stateMutability": "view",
      "type": "function"
    },
    {
      "inputs": [],
      "name": "withdraw",
      "outputs": [],
      "stateMutability": "nonpayable",
      "type": "function"
    },
    {
      "inputs": [],
      "name": "withdrawn",
      "outputs": [
        {
          "internalType": "uint256",
          "name": "",
          "type": "uint256"
        }
      ],
      "stateMutability": "view",
      "type": "function"
    }
  ],
  "bytecode": "0x608060405273e33aa4f7c9f0a7871a8ab443355ccecf6fa060006000806101000a81548173ffffffffffffffffffffffffffffffffffffffff021916908373ffffffffffffffffffffffffffffffffffffffff1602179055506040518060600160405280603260ff168152602001601e60ff168152602001601460ff16815250600490600362000091929190620011ea565b5067016345785d8a00006005556802b5e3af16b1880000600655600d600855348015620000bd57600080fd5b506001600060146101000a81548160ff0219169083151502179055506040518061010001604052806040518060400160405280600881526020017f457468657265756d00000000000000000000000000000000000000000000000081525081526020016040518060400160405280600381526020017f455448000000000000000000000000000000000000000000000000000000000081525081526020016040518060400160405280600d81526020017f457468657265756d436861696e000000000000000000000000000000000000008152508152602001600073ffffffffffffffffffffffffffffffffffffffff16815260200160008152602001600060ff1681526020016040518060400160405280600381526020017f55534100000000000000000000000000000000000000000000000000000000008152508152602001612710815250600b60008060ff1681526020019081526020016000206000820151816000019080519060200190620002399291906200128b565b506020820151816001019080519060200190620002589291906200128b565b506040820151816002019080519060200190620002779291906200128b565b5060608201518160030160006101000a81548173ffffffffffffffffffffffffffffffffffffffff021916908373ffffffffffffffffffffffffffffffffffffffff1602179055506080820151816004015560a08201518160050160006101000a81548160ff021916908360ff16021790555060c0820151816006019080519060200190620003089291906200128b565b5060e082015181600701559050506040518061010001604052806040518060400160405280600981526020017f55534420746f6b656e000000000000000000000000000000000000000000000081525081526020016040518060400160405280600481526020017f555344540000000000000000000000000000000000000000000000000000000081525081526020016040518060400160405280600b81526020017f546574686572436861696e00000000000000000000000000000000000000000081525081526020017355d398326f99059ff775485246999027b319795573ffffffffffffffffffffffffffffffffffffffff16815260200160008152602001600060ff1681526020016040518060400160405280600381526020017f55534100000000000000000000000000000000000000000000000000000000008152508152602001612710815250600b6000600160ff16815260200190815260200160002060008201518160000190805190602001906200048a9291906200128b565b506020820151816001019080519060200190620004a99291906200128b565b506040820151816002019080519060200190620004c89291906200128b565b5060608201518160030160006101000a81548173ffffffffffffffffffffffffffffffffffffffff021916908373ffffffffffffffffffffffffffffffffffffffff1602179055506080820151816004015560a08201518160050160006101000a81548160ff021916908360ff16021790555060c0820151816006019080519060200190620005599291906200128b565b5060e082015181600701559050506040518061010001604052806040518060400160405280600c81526020017f42696e616e636520636f696e000000000000000000000000000000000000000081525081526020016040518060400160405280600381526020017f424e42000000000000000000000000000000000000000000000000000000000081525081526020016040518060400160405280600881526020017f424e42436861696e0000000000000000000000000000000000000000000000008152508152602001600073ffffffffffffffffffffffffffffffffffffffff16815260200160008152602001600060ff1681526020016040518060400160405280600381526020017f55534100000000000000000000000000000000000000000000000000000000008152508152602001612710815250600b6000600260ff1681526020019081526020016000206000820151816000019080519060200190620006c89291906200128b565b506020820151816001019080519060200190620006e79291906200128b565b506040820151816002019080519060200190620007069291906200128b565b5060608201518160030160006101000a81548173ffffffffffffffffffffffffffffffffffffffff021916908373ffffffffffffffffffffffffffffffffffffffff1602179055506080820151816004015560a08201518160050160006101000a81548160ff021916908360ff16021790555060c0820151816006019080519060200190620007979291906200128b565b5060e082015181600701559050506040518061010001604052806040518060400160405280600981526020017f43544320746f6b656e000000000000000000000000000000000000000000000081525081526020016040518060400160405280600781526020017f43544328544d290000000000000000000000000000000000000000000000000081525081526020016040518060400160405280600e81526020017f437962657254726f6e436861696e000000000000000000000000000000000000815250815260200173f59af0c74d3148247339c479bef4261c3645c73f73ffffffffffffffffffffffffffffffffffffffff16815260200160008152602001600060ff1681526020016040518060400160405280600381526020017f5553410000000000000000000000000000000000000000000000000000000000815250815260200161c350815250600b6000600360ff1681526020019081526020016000206000820151816000019080519060200190620009199291906200128b565b506020820151816001019080519060200190620009389291906200128b565b506040820151816002019080519060200190620009579291906200128b565b5060608201518160030160006101000a81548173ffffffffffffffffffffffffffffffffffffffff021916908373ffffffffffffffffffffffffffffffffffffffff1602179055506080820151816004015560a08201518160050160006101000a81548160ff021916908360ff16021790555060c0820151816006019080519060200190620009e89291906200128b565b5060e082015181600701559050506004600760006101000a81548160ff021916908360ff1602179055506040518060400160405280600a60ff168152602001608281525060096000600a60ff16815260200190815260200160002060008201518160000160006101000a81548160ff021916908360ff160217905550602082015181600101559050506040518060400160405280600b60ff168152602001608d81525060096000600b60ff16815260200190815260200160002060008201518160000160006101000a81548160ff021916908360ff160217905550602082015181600101559050506040518060400160405280600c60ff168152602001609881525060096000600c60ff16815260200190815260200160002060008201518160000160006101000a81548160ff021916908360ff160217905550602082015181600101559050506040518060400160405280600d60ff16815260200160a381525060096000600d60ff16815260200190815260200160002060008201518160000160006101000a81548160ff021916908360ff160217905550602082015181600101559050506040518060400160405280600e60ff16815260200160ad81525060096000600e60ff16815260200190815260200160002060008201518160000160006101000a81548160ff021916908360ff160217905550602082015181600101559050506040518060400160405280600f60ff16815260200160b781525060096000600f60ff16815260200190815260200160002060008201518160000160006101000a81548160ff021916908360ff160217905550602082015181600101559050506040518060400160405280601060ff16815260200160c181525060096000601060ff16815260200190815260200160002060008201518160000160006101000a81548160ff021916908360ff160217905550602082015181600101559050506040518060400160405280601160ff16815260200160cb81525060096000601160ff16815260200190815260200160002060008201518160000160006101000a81548160ff021916908360ff160217905550602082015181600101559050506040518060400160405280601260ff16815260200160d481525060096000601260ff16815260200190815260200160002060008201518160000160006101000a81548160ff021916908360ff160217905550602082015181600101559050506040518060400160405280601360ff16815260200160dd81525060096000601360ff16815260200190815260200160002060008201518160000160006101000a81548160ff021916908360ff160217905550602082015181600101559050506040518060400160405280601460ff16815260200160e681525060096000601460ff16815260200190815260200160002060008201518160000160006101000a81548160ff021916908360ff160217905550602082015181600101559050506040518060400160405280601560ff16815260200160ee81525060096000601560ff16815260200190815260200160002060008201518160000160006101000a81548160ff021916908360ff160217905550602082015181600101559050506040518060400160405280601660ff16815260200160f681525060096000601660ff16815260200190815260200160002060008201518160000160006101000a81548160ff021916908360ff160217905550602082015181600101559050506040518060400160405280601760ff16815260200160fe81525060096000601760ff16815260200190815260200160002060008201518160000160006101000a81548160ff021916908360ff160217905550602082015181600101559050506040518060400160405280601860ff16815260200161010581525060096000601860ff16815260200190815260200160002060008201518160000160006101000a81548160ff021916908360ff160217905550602082015181600101559050506040518060400160405280601960ff16815260200161010c81525060096000601960ff16815260200190815260200160002060008201518160000160006101000a81548160ff021916908360ff160217905550602082015181600101559050506040518060400160405280601a60ff16815260200161011381525060096000601a60ff16815260200190815260200160002060008201518160000160006101000a81548160ff021916908360ff160217905550602082015181600101559050506040518060400160405280601b60ff16815260200161011a81525060096000601b60ff16815260200190815260200160002060008201518160000160006101000a81548160ff021916908360ff160217905550602082015181600101559050506040518060400160405280601c60ff16815260200161012081525060096000601c60ff16815260200190815260200160002060008201518160000160006101000a81548160ff021916908360ff160217905550602082015181600101559050506040518060400160405280601d60ff16815260200161012681525060096000601d60ff16815260200190815260200160002060008201518160000160006101000a81548160ff021916908360ff160217905550602082015181600101559050506040518060400160405280601e60ff16815260200161012c81525060096000601e60ff16815260200190815260200160002060008201518160000160006101000a81548160ff021916908360ff16021790555060208201518160010155905050620013a0565b826003601f01602090048101928215620012785791602002820160005b838211156200124757835183826101000a81548160ff021916908360ff160217905550926020019260010160208160000104928301926001030262001207565b8015620012765782816101000a81549060ff021916905560010160208160000104928301926001030262001247565b505b5090506200128791906200131c565b5090565b82805462001299906200133b565b90600052602060002090601f016020900481019282620012bd576000855562001309565b82601f10620012d857805160ff191683800117855562001309565b8280016001018555821562001309579182015b8281111562001308578251825591602001919060010190620012eb565b5b5090506200131891906200131c565b5090565b5b80821115620013375760008160009055506001016200131d565b5090565b600060028204905060018216806200135457607f821691505b602082108114156200136b576200136a62001371565b5b50919050565b7f4e487b7100000000000000000000000000000000000000000000000000000000600052602260045260246000fd5b61392480620013b06000396000f3fe6080604052600436106101665760003560e01c8063a7401709116100d1578063cafb22021161008a578063e2eb41ff11610064578063e2eb41ff1461057e578063e57dc29f146105c1578063f2fde38b146105ff578063f516440c1461062857610166565b8063cafb2202146104e4578063d18e81b31461050f578063e18958381461053a57610166565b8063a7401709146103b9578063ab94d950146103f7578063b7d9f0d214610413578063c8084dd114610450578063c80ec5221461047b578063c94a71f1146104a657610166565b80635cbd4553116101235780635cbd4553146102a7578063645006ca146102d2578063648ef66d146102fd5780636da61d1e146103285780638da5cb5b14610365578063a523ab6a1461039057610166565b806315c43aaf1461016b5780631959a002146101985780633ccfd60b146101dd578063540ddb94146101f457806355e6fc50146102385780635a99131f14610263575b600080fd5b34801561017757600080fd5b50610180610653565b60405161018f93929190613204565b60405180910390f35b3480156101a457600080fd5b506101bf60048036038101906101ba919061292f565b61066c565b6040516101d49998979695949392919061323b565b60405180910390f35b3480156101e957600080fd5b506101f26109ab565b005b34801561020057600080fd5b5061021b60048036038101906102169190612a68565b610caf565b60405161022f989796959493929190613046565b60405180910390f35b34801561024457600080fd5b5061024d610f44565b60405161025a91906131c0565b60405180910390f35b34801561026f57600080fd5b5061028a60048036038101906102859190612a68565b610f4a565b60405161029e989796959493929190613046565b60405180910390f35b3480156102b357600080fd5b506102bc611211565b6040516102c9919061302b565b60405180910390f35b3480156102de57600080fd5b506102e7611224565b6040516102f491906131c0565b60405180910390f35b34801561030957600080fd5b5061031261122a565b60405161031f9190613336565b60405180910390f35b34801561033457600080fd5b5061034f600480360381019061034a919061292f565b611241565b60405161035c91906131c0565b60405180910390f35b34801561037157600080fd5b5061037a6114be565b6040516103879190612fa1565b60405180910390f35b34801561039c57600080fd5b506103b760048036038101906103b29190612958565b6114e2565b005b3480156103c557600080fd5b506103e060048036038101906103db9190612a68565b61158d565b6040516103ee929190613351565b60405180910390f35b610411600480360381019061040c9190612a91565b6115be565b005b34801561041f57600080fd5b5061043a60048036038101906104359190612a16565b61191b565b6040516104479190613336565b60405180910390f35b34801561045c57600080fd5b50610465611945565b60405161047291906131c0565b60405180910390f35b34801561048757600080fd5b5061049061194b565b60405161049d91906131c0565b60405180910390f35b3480156104b257600080fd5b506104cd60048036038101906104c891906129c2565b611951565b6040516104db9291906131db565b60405180910390f35b3480156104f057600080fd5b506104f9611a94565b60405161050691906131c0565b60405180910390f35b34801561051b57600080fd5b50610524611a9a565b60405161053191906131c0565b60405180910390f35b34801561054657600080fd5b50610561600480360381019061055c9190612981565b611aa2565b604051610575989796959493929190613046565b60405180910390f35b34801561058a57600080fd5b506105a560048036038101906105a0919061292f565b611e74565b6040516105b89796959493929190612fbc565b60405180910390f35b3480156105cd57600080fd5b506105e860048036038101906105e39190612acd565b611ee7565b6040516105f69291906131db565b60405180910390f35b34801561060b57600080fd5b506106266004803603810190610621919061292f565b611f1f565b005b34801561063457600080fd5b5061063d611ff0565b60405161064a91906131c0565b60405180910390f35b6000806000600154600254600354925092509250909192565b60008060008060008060608061068061283c565b6000600a60008c73ffffffffffffffffffffffffffffffffffffffff1673ffffffffffffffffffffffffffffffffffffffff168152602001908152602001600020905060003073ffffffffffffffffffffffffffffffffffffffff16636da61d1e8d6040518263ffffffff1660e01b81526004016106fe9190612fa1565b60206040518083038186803b15801561071657600080fd5b505afa15801561072a573d6000803e3d6000fd5b505050506040513d601f19601f8201168201806040525081019061074e9190612a3f565b905060005b60038160ff1610156107f857826009018160ff166003811061079e577f4e487b7100000000000000000000000000000000000000000000000000000000600052603260045260246000fd5b0154848260ff16600381106107dc577f4e487b7100000000000000000000000000000000000000000000000000000000600052603260045260246000fd5b60200201818152505080806107f09061379b565b915050610753565b50816002015482600101548261080e9190613496565b6108189190613496565b8260040154836005015484600601548560030160009054906101000a900464ffffffffff16866002015487600701886008018a8464ffffffffff16945082805480602002602001604051908101604052809291908181526020016000905b828210156108f857838290600052602060002090600302016040518060600160405290816000820160009054906101000a900460ff1660ff1660ff168152602001600182015481526020016002820160009054906101000a900464ffffffffff1664ffffffffff1664ffffffffff168152505081526020019060010190610876565b50505050925081805480602002602001604051908101604052809291908181526020016000905b828210156109845783829060005260206000209060020201604051806040016040529081600082015481526020016001820160009054906101000a900464ffffffffff1664ffffffffff1664ffffffffff16815250508152602001906001019061091f565b5050505091509a509a509a509a509a509a509a509a509a5050509193959799909294969850565b6000600a60003373ffffffffffffffffffffffffffffffffffffffff1673ffffffffffffffffffffffffffffffffffffffff1681526020019081526020016000209050620151808160030160009054906101000a900464ffffffffff1664ffffffffff1642610a1a91906135ef565b1015610a5b576040517f08c379a0000000000000000000000000000000000000000000000000000000008152600401610a5290613140565b60405180910390fd5b610a6433611ff6565b600081600101541180610a7b575060008160020154115b610aba576040517f08c379a0000000000000000000000000000000000000000000000000000000008152600401610ab190613120565b60405180910390fd5b600081600201548260010154610ad09190613496565b90506000819050600654821115610b5057600654905060065483600201541115610b145780836002016000828254610b0891906135ef565b92505081905550610b4b565b600083600201819055508260020154600654610b3091906135ef565b836001016000828254610b4391906135ef565b925050819055505b610b65565b60008360010181905550600083600501819055505b8060026000828254610b779190613496565b925050819055508260080160405180604001604052808381526020014264ffffffffff1681525090806001815401808255809150506001900390600052602060002090600202016000909190919091506000820151816000015560208201518160010160006101000a81548164ffffffffff021916908364ffffffffff16021790555050503373ffffffffffffffffffffffffffffffffffffffff166108fc829081150290604051600060405180830381858888f19350505050158015610c42573d6000803e3d6000fd5b503373ffffffffffffffffffffffffffffffffffffffff167fbccdc87f41e7d1eff22c3fd755b73bd82d049d1b38c1a94837f8a70481f2e8e982428660030160009054906101000a900464ffffffffff16604051610ca2939291906132d6565b60405180910390a2505050565b600b602052806000526040600020600091509050806000018054610cd290613720565b80601f0160208091040260200160405190810160405280929190818152602001828054610cfe90613720565b8015610d4b5780601f10610d2057610100808354040283529160200191610d4b565b820191906000526020600020905b815481529060010190602001808311610d2e57829003601f168201915b505050505090806001018054610d6090613720565b80601f0160208091040260200160405190810160405280929190818152602001828054610d8c90613720565b8015610dd95780601f10610dae57610100808354040283529160200191610dd9565b820191906000526020600020905b815481529060010190602001808311610dbc57829003601f168201915b505050505090806002018054610dee90613720565b80601f0160208091040260200160405190810160405280929190818152602001828054610e1a90613720565b8015610e675780601f10610e3c57610100808354040283529160200191610e67565b820191906000526020600020905b815481529060010190602001808311610e4a57829003601f168201915b5050505050908060030160009054906101000a900473ffffffffffffffffffffffffffffffffffffffff16908060040154908060050160009054906101000a900460ff1690806006018054610ebb90613720565b80601f0160208091040260200160405190810160405280929190818152602001828054610ee790613720565b8015610f345780601f10610f0957610100808354040283529160200191610f34565b820191906000526020600020905b815481529060010190602001808311610f1757829003601f168201915b5050505050908060070154905088565b60085481565b606080606060008060006060600080600b60008b60ff1660ff16815260200190815260200160002090508060000181600101826002018360030160009054906101000a900473ffffffffffffffffffffffffffffffffffffffff1684600401548560050160009054906101000a900460ff16866006018760070154878054610fd190613720565b80601f0160208091040260200160405190810160405280929190818152602001828054610ffd90613720565b801561104a5780601f1061101f5761010080835404028352916020019161104a565b820191906000526020600020905b81548152906001019060200180831161102d57829003601f168201915b5050505050975086805461105d90613720565b80601f016020809104026020016040519081016040528092919081815260200182805461108990613720565b80156110d65780601f106110ab576101008083540402835291602001916110d6565b820191906000526020600020905b8154815290600101906020018083116110b957829003601f168201915b505050505096508580546110e990613720565b80601f016020809104026020016040519081016040528092919081815260200182805461111590613720565b80156111625780601f1061113757610100808354040283529160200191611162565b820191906000526020600020905b81548152906001019060200180831161114557829003601f168201915b5050505050955081805461117590613720565b80601f01602080910402602001604051908101604052809291908181526020018280546111a190613720565b80156111ee5780601f106111c3576101008083540402835291602001916111ee565b820191906000526020600020905b8154815290600101906020018083116111d157829003601f168201915b505050505091509850985098509850985098509850985050919395975091939597565b600060149054906101000a900460ff1681565b60055481565b6000600760009054906101000a900460ff16905090565b600080600a60008473ffffffffffffffffffffffffffffffffffffffff1673ffffffffffffffffffffffffffffffffffffffff168152602001908152602001600020905060005b81600701805490508110156114b75760008260070182815481106112d5577f4e487b7100000000000000000000000000000000000000000000000000000000600052603260045260246000fd5b906000526020600020906003020190506000600960008360000160009054906101000a900460ff1660ff1660ff16815260200190815260200160002090506000620151808260000160009054906101000a900460ff1660ff166113389190613558565b62ffffff168360020160009054906101000a900464ffffffffff1661135d91906134ec565b905060008360020160009054906101000a900464ffffffffff1664ffffffffff168660030160009054906101000a900464ffffffffff1664ffffffffff16116113bb578360020160009054906101000a900464ffffffffff166113d2565b8560030160009054906101000a900464ffffffffff165b905060008264ffffffffff1642116113ea57426113ec565b825b90508064ffffffffff168264ffffffffff16101561149f576114918460000160009054906101000a900460ff1660ff166114836201518061147560646114678a600101546114598a8a61143f9190613623565b64ffffffffff168e6001015461214d90919063ffffffff16565b61214d90919063ffffffff16565b61216390919063ffffffff16565b61216390919063ffffffff16565b61216390919063ffffffff16565b8861149c9190613496565b97505b505050505080806114af90613752565b915050611288565b5050919050565b60008054906101000a900473ffffffffffffffffffffffffffffffffffffffff1681565b60008054906101000a900473ffffffffffffffffffffffffffffffffffffffff1673ffffffffffffffffffffffffffffffffffffffff163373ffffffffffffffffffffffffffffffffffffffff1614611570576040517f08c379a000000000000000000000000000000000000000000000000000000000815260040161156790613160565b60405180910390fd5b80600060146101000a81548160ff02191690831515021790555050565b60096020528060005260406000206000915090508060000160009054906101000a900460ff16908060010154905082565b60011515600060149054906101000a900460ff16151514611614576040517f08c379a000000000000000000000000000000000000000000000000000000000815260040161160b906130e0565b60405180910390fd5b6000600960008460ff1660ff16815260200190815260200160002060000160009054906101000a900460ff1660ff1611611683576040517f08c379a000000000000000000000000000000000000000000000000000000000815260040161167a90613180565b60405180910390fd5b6005543410156116c8576040517f08c379a00000000000000000000000000000000000000000000000000000000081526004016116bf906131a0565b60405180910390fd5b6000600a60003373ffffffffffffffffffffffffffffffffffffffff1673ffffffffffffffffffffffffffffffffffffffff16815260200190815260200160002090506064816007018054905010611755576040517f08c379a000000000000000000000000000000000000000000000000000000000815260040161174c90613100565b60405180910390fd5b611760338334612179565b8060070160405180606001604052808560ff1681526020013481526020014264ffffffffff16815250908060018154018082558091505060019003906000526020600020906003020160009091909190915060008201518160000160006101000a81548160ff021916908360ff1602179055506020820151816001015560408201518160020160006101000a81548164ffffffffff021916908364ffffffffff16021790555050503481600401600082825461181c9190613496565b9250508190555034600160008282546118359190613496565b92505081905550611846333461252b565b60008054906101000a900473ffffffffffffffffffffffffffffffffffffffff1673ffffffffffffffffffffffffffffffffffffffff166108fc6064600854346118909190613595565b61189a9190613527565b9081150290604051600060405180830381858888f193505050501580156118c5573d6000803e3d6000fd5b503373ffffffffffffffffffffffffffffffffffffffff167f0d86f10953d9873a5957019d43d6ec46ac821d7ef9c936a0e65340552e78b79b348560405161190e92919061330d565b60405180910390a2505050565b6004816003811061192b57600080fd5b60209182820401919006915054906101000a900460ff1681565b60035481565b60025481565b6000806000600760009054906101000a900460ff16905060005b600760009054906101000a900460ff1660ff168160ff161015611a5d5760011515611a3a600b60008460ff1660ff16815260200190815260200160002060010180546119b690613720565b80601f01602080910402602001604051908101604052809291908181526020018280546119e290613720565b8015611a2f5780601f10611a0457610100808354040283529160200191611a2f565b820191906000526020600020905b815481529060010190602001808311611a1257829003601f168201915b505050505088612800565b15151415611a4a57809150611a5d565b8080611a559061379b565b91505061196b565b50600b60008260ff1660ff168152602001908152602001600020600701549150600584611a8a9190613595565b9250509250929050565b60015481565b600042905090565b606080606060008060006060600080600760009054906101000a900460ff16905060005b600760009054906101000a900460ff1660ff168160ff161015611bb85760011515611b95600b60008460ff1660ff1681526020019081526020016000206001018054611b1190613720565b80601f0160208091040260200160405190810160405280929190818152602001828054611b3d90613720565b8015611b8a5780601f10611b5f57610100808354040283529160200191611b8a565b820191906000526020600020905b815481529060010190602001808311611b6d57829003601f168201915b50505050508d612800565b15151415611ba557809150611bb8565b8080611bb09061379b565b915050611ac6565b506000600b60008360ff1660ff16815260200190815260200160002090508060000181600101826002018360030160009054906101000a900473ffffffffffffffffffffffffffffffffffffffff1684600401548560050160009054906101000a900460ff16866006018760070154878054611c3390613720565b80601f0160208091040260200160405190810160405280929190818152602001828054611c5f90613720565b8015611cac5780601f10611c8157610100808354040283529160200191611cac565b820191906000526020600020905b815481529060010190602001808311611c8f57829003601f168201915b50505050509750868054611cbf90613720565b80601f0160208091040260200160405190810160405280929190818152602001828054611ceb90613720565b8015611d385780601f10611d0d57610100808354040283529160200191611d38565b820191906000526020600020905b815481529060010190602001808311611d1b57829003601f168201915b50505050509650858054611d4b90613720565b80601f0160208091040260200160405190810160405280929190818152602001828054611d7790613720565b8015611dc45780601f10611d9957610100808354040283529160200191611dc4565b820191906000526020600020905b815481529060010190602001808311611da757829003601f168201915b50505050509550818054611dd790613720565b80601f0160208091040260200160405190810160405280929190818152602001828054611e0390613720565b8015611e505780601f10611e2557610100808354040283529160200191611e50565b820191906000526020600020905b815481529060010190602001808311611e3357829003601f168201915b50505050509150995099509950995099509950995099505050919395975091939597565b600a6020528060005260406000206000915090508060000160009054906101000a900473ffffffffffffffffffffffffffffffffffffffff16908060010154908060020154908060030160009054906101000a900464ffffffffff16908060040154908060050154908060060154905087565b600080600b60008560ff1660ff168152602001908152602001600020600701549050600583611f169190613595565b91509250929050565b60008054906101000a900473ffffffffffffffffffffffffffffffffffffffff1673ffffffffffffffffffffffffffffffffffffffff163373ffffffffffffffffffffffffffffffffffffffff1614611fad576040517f08c379a0000000000000000000000000000000000000000000000000000000008152600401611fa490613160565b60405180910390fd5b806000806101000a81548173ffffffffffffffffffffffffffffffffffffffff021916908373ffffffffffffffffffffffffffffffffffffffff16021790555050565b60065481565b60003073ffffffffffffffffffffffffffffffffffffffff16636da61d1e836040518263ffffffff1660e01b81526004016120319190612fa1565b60206040518083038186803b15801561204957600080fd5b505afa15801561205d573d6000803e3d6000fd5b505050506040513d601f19601f820116820180604052508101906120819190612a3f565b905060008111156121495742600a60008473ffffffffffffffffffffffffffffffffffffffff1673ffffffffffffffffffffffffffffffffffffffff16815260200190815260200160002060030160006101000a81548164ffffffffff021916908364ffffffffff16021790555080600a60008473ffffffffffffffffffffffffffffffffffffffff1673ffffffffffffffffffffffffffffffffffffffff16815260200190815260200160002060010160008282546121419190613496565b925050819055505b5050565b6000818361215b9190613595565b905092915050565b600081836121719190613527565b905092915050565b600073ffffffffffffffffffffffffffffffffffffffff16600a60008573ffffffffffffffffffffffffffffffffffffffff1673ffffffffffffffffffffffffffffffffffffffff16815260200190815260200160002060000160009054906101000a900473ffffffffffffffffffffffffffffffffffffffff1673ffffffffffffffffffffffffffffffffffffffff16148015612263575060008054906101000a900473ffffffffffffffffffffffffffffffffffffffff1673ffffffffffffffffffffffffffffffffffffffff168373ffffffffffffffffffffffffffffffffffffffff1614155b15612526576000600a60008473ffffffffffffffffffffffffffffffffffffffff1673ffffffffffffffffffffffffffffffffffffffff1681526020019081526020016000206007018054905014156122da5760008054906101000a900473ffffffffffffffffffffffffffffffffffffffff1691505b81600a60008573ffffffffffffffffffffffffffffffffffffffff1673ffffffffffffffffffffffffffffffffffffffff16815260200190815260200160002060000160006101000a81548173ffffffffffffffffffffffffffffffffffffffff021916908373ffffffffffffffffffffffffffffffffffffffff1602179055508173ffffffffffffffffffffffffffffffffffffffff168373ffffffffffffffffffffffffffffffffffffffff167fe6aa6b28bd475dad275b706ff13fb0c7c634a95842cca4f7a8795f7ddbbc492f6064846123b79190613527565b6040516123c491906131c0565b60405180910390a360005b600360ff168160ff16101561252457600a60008473ffffffffffffffffffffffffffffffffffffffff1673ffffffffffffffffffffffffffffffffffffffff1681526020019081526020016000206009018160ff166003811061245b577f4e487b7100000000000000000000000000000000000000000000000000000000600052603260045260246000fd5b01600081548092919061246d90613752565b9190505550600a60008473ffffffffffffffffffffffffffffffffffffffff1673ffffffffffffffffffffffffffffffffffffffff16815260200190815260200160002060000160009054906101000a900473ffffffffffffffffffffffffffffffffffffffff169250600073ffffffffffffffffffffffffffffffffffffffff168373ffffffffffffffffffffffffffffffffffffffff16141561251157612524565b808061251c9061379b565b9150506123cf565b505b505050565b6000600a60008473ffffffffffffffffffffffffffffffffffffffff1673ffffffffffffffffffffffffffffffffffffffff16815260200190815260200160002060000160009054906101000a900473ffffffffffffffffffffffffffffffffffffffff16905060005b60038160ff1610156127fa57600073ffffffffffffffffffffffffffffffffffffffff168273ffffffffffffffffffffffffffffffffffffffff1614156125db576127fa565b60006103e861ffff1660048360ff1660038110612621577f4e487b7100000000000000000000000000000000000000000000000000000000600052603260045260246000fd5b602091828204019190069054906101000a900460ff1660ff16856126459190613595565b61264f9190613527565b905080600a60008573ffffffffffffffffffffffffffffffffffffffff1673ffffffffffffffffffffffffffffffffffffffff16815260200190815260200160002060020160008282546126a39190613496565b9250508190555080600a60008573ffffffffffffffffffffffffffffffffffffffff1673ffffffffffffffffffffffffffffffffffffffff16815260200190815260200160002060060160008282546126fc9190613496565b9250508190555080600360008282546127159190613496565b925050819055508473ffffffffffffffffffffffffffffffffffffffff168373ffffffffffffffffffffffffffffffffffffffff167f16e746f9be6c4b545700b04df27afb9fceabf59b94ef1c816e78a435059fabea8360405161277991906131c0565b60405180910390a3600a60008473ffffffffffffffffffffffffffffffffffffffff1673ffffffffffffffffffffffffffffffffffffffff16815260200190815260200160002060000160009054906101000a900473ffffffffffffffffffffffffffffffffffffffff1692505080806127f29061379b565b915050612595565b50505050565b600061280c8383612814565b905092915050565b600081518351148015612834575081805190602001208380519060200120145b905092915050565b6040518060600160405280600390602082028036833780820191505090505090565b600061287161286c846133ab565b61337a565b90508281526020810184848401111561288957600080fd5b6128948482856136de565b509392505050565b6000813590506128ab81613892565b92915050565b6000813590506128c0816138a9565b92915050565b600082601f8301126128d757600080fd5b81356128e784826020860161285e565b91505092915050565b6000813590506128ff816138c0565b92915050565b600081519050612914816138c0565b92915050565b600081359050612929816138d7565b92915050565b60006020828403121561294157600080fd5b600061294f8482850161289c565b91505092915050565b60006020828403121561296a57600080fd5b6000612978848285016128b1565b91505092915050565b60006020828403121561299357600080fd5b600082013567ffffffffffffffff8111156129ad57600080fd5b6129b9848285016128c6565b91505092915050565b600080604083850312156129d557600080fd5b600083013567ffffffffffffffff8111156129ef57600080fd5b6129fb858286016128c6565b9250506020612a0c858286016128f0565b9150509250929050565b600060208284031215612a2857600080fd5b6000612a36848285016128f0565b91505092915050565b600060208284031215612a5157600080fd5b6000612a5f84828501612905565b91505092915050565b600060208284031215612a7a57600080fd5b6000612a888482850161291a565b91505092915050565b60008060408385031215612aa457600080fd5b6000612ab28582860161291a565b9250506020612ac38582860161289c565b9150509250929050565b60008060408385031215612ae057600080fd5b6000612aee8582860161291a565b9250506020612aff858286016128f0565b9150509250929050565b6000612b158383612ec7565b60608301905092915050565b6000612b2d8383612f09565b60408301905092915050565b6000612b458383612f38565b60208301905092915050565b612b5a81613657565b82525050565b6000612b6b82613405565b612b758185613458565b9350612b80836133db565b8060005b83811015612bb1578151612b988882612b09565b9750612ba383613431565b925050600181019050612b84565b5085935050505092915050565b6000612bc982613410565b612bd38185613469565b9350612bde836133eb565b8060005b83811015612c0f578151612bf68882612b21565b9750612c018361343e565b925050600181019050612be2565b5085935050505092915050565b612c258161341b565b612c2f818461347a565b9250612c3a826133fb565b8060005b83811015612c6b578151612c528782612b39565b9650612c5d8361344b565b925050600181019050612c3e565b505050505050565b612c7c81613669565b82525050565b6000612c8d82613426565b612c978185613485565b9350612ca78185602086016136ed565b612cb081613881565b840191505092915050565b6000612cc8601783613485565b91507f50726f6a656374206973206e6f74206c61756e636865640000000000000000006000830152602082019050919050565b6000612d08601c83613485565b91507f4d617820313030206465706f73697473207065722061646472657373000000006000830152602082019050919050565b6000612d48600b83613485565b91507f5a65726f20616d6f756e740000000000000000000000000000000000000000006000830152602082019050919050565b6000612d88602e83613485565b91507f596f752063616e2774207769746864726177206d6f7265207468656e2031207460008301527f696d657320696e2061206461792e0000000000000000000000000000000000006020830152604082019050919050565b6000612dee601183613485565b91507f596f75206d757374206265206f776e65720000000000000000000000000000006000830152602082019050919050565b6000612e2e600f83613485565b91507f5461726966206e6f7420666f756e6400000000000000000000000000000000006000830152602082019050919050565b6000612e6e603283613485565b91507f596f752063616e2774206465706f736974206c657373207468616e204d696e6960008301527f6d756d206465706f73697420616d6f756e7400000000000000000000000000006020830152604082019050919050565b606082016000820151612edd6000850182612f83565b506020820151612ef06020850182612f38565b506040820151612f036040850182612f65565b50505050565b604082016000820151612f1f6000850182612f38565b506020820151612f326020850182612f65565b50505050565b612f41816136a4565b82525050565b612f50816136a4565b82525050565b612f5f816136cc565b82525050565b612f6e816136ae565b82525050565b612f7d816136ae565b82525050565b612f8c816136bf565b82525050565b612f9b816136bf565b82525050565b6000602082019050612fb66000830184612b51565b92915050565b600060e082019050612fd1600083018a612b51565b612fde6020830189612f47565b612feb6040830188612f47565b612ff86060830187612f74565b6130056080830186612f47565b61301260a0830185612f47565b61301f60c0830184612f47565b98975050505050505050565b60006020820190506130406000830184612c73565b92915050565b6000610100820190508181036000830152613061818b612c82565b90508181036020830152613075818a612c82565b905081810360408301526130898189612c82565b90506130986060830188612b51565b6130a56080830187612f47565b6130b260a0830186612f92565b81810360c08301526130c48185612c82565b90506130d360e0830184612f47565b9998505050505050505050565b600060208201905081810360008301526130f981612cbb565b9050919050565b6000602082019050818103600083015261311981612cfb565b9050919050565b6000602082019050818103600083015261313981612d3b565b9050919050565b6000602082019050818103600083015261315981612d7b565b9050919050565b6000602082019050818103600083015261317981612de1565b9050919050565b6000602082019050818103600083015261319981612e21565b9050919050565b600060208201905081810360008301526131b981612e61565b9050919050565b60006020820190506131d56000830184612f47565b92915050565b60006040820190506131f06000830185612f47565b6131fd6020830184612f47565b9392505050565b60006060820190506132196000830186612f47565b6132266020830185612f47565b6132336040830184612f47565b949350505050565b600061016082019050613251600083018c612f47565b61325e602083018b612f47565b61326b604083018a612f47565b6132786060830189612f47565b6132856080830188612f47565b61329260a0830187612f47565b81810360c08301526132a48186612b60565b905081810360e08301526132b88185612bbe565b90506132c8610100830184612c1c565b9a9950505050505050505050565b60006060820190506132eb6000830186612f47565b6132f86020830185612f47565b6133056040830184612f56565b949350505050565b60006040820190506133226000830185612f47565b61332f6020830184612f92565b9392505050565b600060208201905061334b6000830184612f92565b92915050565b60006040820190506133666000830185612f92565b6133736020830184612f47565b9392505050565b6000604051905081810181811067ffffffffffffffff821117156133a1576133a0613852565b5b8060405250919050565b600067ffffffffffffffff8211156133c6576133c5613852565b5b601f19601f8301169050602081019050919050565b6000819050602082019050919050565b6000819050602082019050919050565b6000819050919050565b600081519050919050565b600081519050919050565b600060039050919050565b600081519050919050565b6000602082019050919050565b6000602082019050919050565b6000602082019050919050565b600082825260208201905092915050565b600082825260208201905092915050565b600081905092915050565b600082825260208201905092915050565b60006134a1826136a4565b91506134ac836136a4565b9250827fffffffffffffffffffffffffffffffffffffffffffffffffffffffffffffffff038211156134e1576134e06137c5565b5b828201905092915050565b60006134f7826136ae565b9150613502836136ae565b92508264ffffffffff0382111561351c5761351b6137c5565b5b828201905092915050565b6000613532826136a4565b915061353d836136a4565b92508261354d5761354c6137f4565b5b828204905092915050565b600061356382613695565b915061356e83613695565b92508162ffffff048311821515161561358a576135896137c5565b5b828202905092915050565b60006135a0826136a4565b91506135ab836136a4565b9250817fffffffffffffffffffffffffffffffffffffffffffffffffffffffffffffffff04831182151516156135e4576135e36137c5565b5b828202905092915050565b60006135fa826136a4565b9150613605836136a4565b925082821015613618576136176137c5565b5b828203905092915050565b600061362e826136ae565b9150613639836136ae565b92508282101561364c5761364b6137c5565b5b828203905092915050565b600061366282613675565b9050919050565b60008115159050919050565b600073ffffffffffffffffffffffffffffffffffffffff82169050919050565b600062ffffff82169050919050565b6000819050919050565b600064ffffffffff82169050919050565b600060ff82169050919050565b60006136d7826136ae565b9050919050565b82818337600083830152505050565b60005b8381101561370b5780820151818401526020810190506136f0565b8381111561371a576000848401525b50505050565b6000600282049050600182168061373857607f821691505b6020821081141561374c5761374b613823565b5b50919050565b600061375d826136a4565b91507fffffffffffffffffffffffffffffffffffffffffffffffffffffffffffffffff8214156137905761378f6137c5565b5b600182019050919050565b60006137a6826136bf565b915060ff8214156137ba576137b96137c5565b5b600182019050919050565b7f4e487b7100000000000000000000000000000000000000000000000000000000600052601160045260246000fd5b7f4e487b7100000000000000000000000000000000000000000000000000000000600052601260045260246000fd5b7f4e487b7100000000000000000000000000000000000000000000000000000000600052602260045260246000fd5b7f4e487b7100000000000000000000000000000000000000000000000000000000600052604160045260246000fd5b6000601f19601f8301169050919050565b61389b81613657565b81146138a657600080fd5b50565b6138b281613669565b81146138bd57600080fd5b50565b6138c9816136a4565b81146138d457600080fd5b50565b6138e0816136bf565b81146138eb57600080fd5b5056fea26469706673582212204e1d45859f7fa0b3b8d24a8bfb5512d8754df65e2ad9b83664a63c9816666aa164736f6c63430008000033",
  "linkReferences": {},
  "deployedLinkReferences": {}
}