{
  "_format": "hh-sol-artifact-1",
  "contractName": "NoseStaking",
  "sourceName": "contracts/NoseStaking.sol",
  "abi": [
    {
      "inputs": [],
      "stateMutability": "nonpayable",
      "type": "constructor"
    },
    {
      "anonymous": false,
      "inputs": [
        {
          "indexed": true,
          "internalType": "address",
          "name": "addr",
          "type": "address"
        },
        {
          "indexed": true,
          "internalType": "address",
          "name": "from",
          "type": "address"
        },
        {
          "indexed": false,
          "internalType": "uint256",
          "name": "amount",
          "type": "uint256"
        }
      ],
      "name": "MatchPayout",
      "type": "event"
    },
    {
      "anonymous": false,
      "inputs": [
        {
          "indexed": true,
          "internalType": "address",
          "name": "addr",
          "type": "address"
        },
        {
          "indexed": false,
          "internalType": "uint256",
          "name": "amount",
          "type": "uint256"
        },
        {
          "indexed": false,
          "internalType": "uint8",
          "name": "tarif",
          "type": "uint8"
        }
      ],
      "name": "NewDeposit",
      "type": "event"
    },
    {
      "anonymous": false,
      "inputs": [
        {
          "indexed": true,
          "internalType": "address",
          "name": "addr",
          "type": "address"
        },
        {
          "indexed": false,
          "internalType": "uint256",
          "name": "amount",
          "type": "uint256"
        },
        {
          "indexed": false,
          "internalType": "uint256",
          "name": "date",
          "type": "uint256"
        },
        {
          "indexed": false,
          "internalType": "uint256",
          "name": "last_payout",
          "type": "uint256"
        }
      ],
      "name": "NewWithdraw",
      "type": "event"
    },
    {
      "anonymous": false,
      "inputs": [
        {
          "indexed": true,
          "internalType": "address",
          "name": "addr",
          "type": "address"
        },
        {
          "indexed": true,
          "internalType": "address",
          "name": "upline",
          "type": "address"
        },
        {
          "indexed": false,
          "internalType": "uint256",
          "name": "bonus",
          "type": "uint256"
        }
      ],
      "name": "Upline",
      "type": "event"
    },
    {
      "inputs": [
        {
          "internalType": "uint8",
          "name": "_index",
          "type": "uint8"
        },
        {
          "internalType": "uint256",
          "name": "stake_amount",
          "type": "uint256"
        }
      ],
      "name": "calcFee",
      "outputs": [
        {
          "internalType": "uint256",
          "name": "stake_val",
          "type": "uint256"
        },
        {
          "internalType": "uint256",
          "name": "fee",
          "type": "uint256"
        }
      ],
      "stateMutability": "view",
      "type": "function"
    },
    {
      "inputs": [
        {
          "internalType": "uint8",
          "name": "",
          "type": "uint8"
        }
      ],
      "name": "coins",
      "outputs": [
        {
          "internalType": "string",
          "name": "name",
          "type": "string"
        },
        {
          "internalType": "string",
          "name": "symbol",
          "type": "string"
        },
        {
          "internalType": "string",
          "name": "chain",
          "type": "string"
        },
        {
          "internalType": "address",
          "name": "addr",
          "type": "address"
        },
        {
          "internalType": "uint256",
          "name": "staked_value",
          "type": "uint256"
        },
        {
          "internalType": "uint8",
          "name": "users",
          "type": "uint8"
        },
        {
          "internalType": "string",
          "name": "country",
          "type": "string"
        },
        {
          "internalType": "uint256",
          "name": "fee",
          "type": "uint256"
        }
      ],
      "stateMutability": "view",
      "type": "function"
    },
    {
      "inputs": [
        {
          "internalType": "uint8",
          "name": "_index",
          "type": "uint8"
        }
      ],
      "name": "coinsInfo",
      "outputs": [
        {
          "internalType": "string",
          "name": "name",
          "type": "string"
        },
        {
          "internalType": "string",
          "name": "symbol",
          "type": "string"
        },
        {
          "internalType": "string",
          "name": "chain",
          "type": "string"
        },
        {
          "internalType": "address",
          "name": "addr",
          "type": "address"
        },
        {
          "internalType": "uint256",
          "name": "staked_value",
          "type": "uint256"
        },
        {
          "internalType": "uint8",
          "name": "users",
          "type": "uint8"
        },
        {
          "internalType": "string",
          "name": "country",
          "type": "string"
        },
        {
          "internalType": "uint256",
          "name": "fee",
          "type": "uint256"
        }
      ],
      "stateMutability": "view",
      "type": "function"
    },
    {
      "inputs": [],
      "name": "contractInfo",
      "outputs": [
        {
          "internalType": "uint256",
          "name": "_invested",
          "type": "uint256"
        },
        {
          "internalType": "uint256",
          "name": "_withdrawn",
          "type": "uint256"
        },
        {
          "internalType": "uint256",
          "name": "_match_bonus",
          "type": "uint256"
        }
      ],
      "stateMutability": "view",
      "type": "function"
    },
    {
      "inputs": [],
      "name": "currentTime",
      "outputs": [
        {
          "internalType": "uint256",
          "name": "timestamp",
          "type": "uint256"
        }
      ],
      "stateMutability": "view",
      "type": "function"
    },
    {
      "inputs": [
        {
          "internalType": "uint8",
          "name": "_tarif",
          "type": "uint8"
        },
        {
          "internalType": "address",
          "name": "_upline",
          "type": "address"
        }
      ],
      "name": "deposit",
      "outputs": [],
      "stateMutability": "payable",
      "type": "function"
    },
    {
      "inputs": [],
      "name": "deposit_fee",
      "outputs": [
        {
          "internalType": "uint256",
          "name": "",
          "type": "uint256"
        }
      ],
      "stateMutability": "view",
      "type": "function"
    },
    {
      "inputs": [],
      "name": "invested",
      "outputs": [
        {
          "internalType": "uint256",
          "name": "",
          "type": "uint256"
        }
      ],
      "stateMutability": "view",
      "type": "function"
    },
    {
      "inputs": [],
      "name": "match_bonus",
      "outputs": [
        {
          "internalType": "uint256",
          "name": "",
          "type": "uint256"
        }
      ],
      "stateMutability": "view",
      "type": "function"
    },
    {
      "inputs": [],
      "name": "maxWithdrawAmount",
      "outputs": [
        {
          "internalType": "uint256",
          "name": "",
          "type": "uint256"
        }
      ],
      "stateMutability": "view",
      "type": "function"
    },
    {
      "inputs": [],
      "name": "minDepositAmount",
      "outputs": [
        {
          "internalType": "uint256",
          "name": "",
          "type": "uint256"
        }
      ],
      "stateMutability": "view",
      "type": "function"
    },
    {
      "inputs": [],
      "name": "owner",
      "outputs": [
        {
          "internalType": "address",
          "name": "",
          "type": "address"
        }
      ],
      "stateMutability": "view",
      "type": "function"
    },
    {
      "inputs": [
        {
          "internalType": "address",
          "name": "_addr",
          "type": "address"
        }
      ],
      "name": "payoutOf",
      "outputs": [
        {
          "internalType": "uint256",
          "name": "value",
          "type": "uint256"
        }
      ],
      "stateMutability": "view",
      "type": "function"
    },
    {
      "inputs": [
        {
          "internalType": "address",
          "name": "",
          "type": "address"
        }
      ],
      "name": "players",
      "outputs": [
        {
          "internalType": "address",
          "name": "upline",
          "type": "address"
        },
        {
          "internalType": "uint256",
          "name": "dividends",
          "type": "uint256"
        },
        {
          "internalType": "uint256",
          "name": "match_bonus",
          "type": "uint256"
        },
        {
          "internalType": "uint40",
          "name": "last_payout",
          "type": "uint40"
        },
        {
          "internalType": "uint256",
          "name": "total_invested",
          "type": "uint256"
        },
        {
          "internalType": "uint256",
          "name": "total_withdrawn",
          "type": "uint256"
        },
        {
          "internalType": "uint256",
          "name": "total_match_bonus",
          "type": "uint256"
        }
      ],
      "stateMutability": "view",
      "type": "function"
    },
    {
      "inputs": [
        {
          "internalType": "uint256",
          "name": "",
          "type": "uint256"
        }
      ],
      "name": "ref_bonuses",
      "outputs": [
        {
          "internalType": "uint8",
          "name": "",
          "type": "uint8"
        }
      ],
      "stateMutability": "view",
      "type": "function"
    },
    {
      "inputs": [
        {
          "internalType": "bool",
          "name": "_tradeStatus",
          "type": "bool"
        }
      ],
      "name": "setTradeOn",
      "outputs": [],
      "stateMutability": "nonpayable",
      "type": "function"
    },
    {
      "inputs": [
        {
          "internalType": "uint8",
          "name": "",
          "type": "uint8"
        }
      ],
      "name": "tarifs",
      "outputs": [
        {
          "internalType": "uint8",
          "name": "life_days",
          "type": "uint8"
        },
        {
          "internalType": "uint256",
          "name": "percent",
          "type": "uint256"
        }
      ],
      "stateMutability": "view",
      "type": "function"
    },
    {
      "inputs": [],
      "name": "tradeOn",
      "outputs": [
        {
          "internalType": "bool",
          "name": "",
          "type": "bool"
        }
      ],
      "stateMutability": "view",
      "type": "function"
    },
    {
      "inputs": [
        {
          "internalType": "address",
          "name": "_owner",
          "type": "address"
        }
      ],
      "name": "transferOwnership",
      "outputs": [],
      "stateMutability": "nonpayable",
      "type": "function"
    },
    {
      "inputs": [
        {
          "internalType": "address",
          "name": "_addr",
          "type": "address"
        }
      ],
      "name": "userInfo",
      "outputs": [
        {
          "internalType": "uint256",
          "name": "for_withdraw",
          "type": "uint256"
        },
        {
          "internalType": "uint256",
          "name": "total_invested",
          "type": "uint256"
        },
        {
          "internalType": "uint256",
          "name": "total_withdrawn",
          "type": "uint256"
        },
        {
          "internalType": "uint256",
          "name": "total_match_bonus",
          "type": "uint256"
        },
        {
          "internalType": "uint256",
          "name": "last_payout",
          "type": "uint256"
        },
        {
          "internalType": "uint256",
          "name": "player_match_bonus",
          "type": "uint256"
        },
        {
          "components": [
            {
              "internalType": "uint8",
              "name": "tarif",
              "type": "uint8"
            },
            {
              "internalType": "uint256",
              "name": "amount",
              "type": "uint256"
            },
            {
              "internalType": "uint40",
              "name": "time",
              "type": "uint40"
            }
          ],
          "internalType": "struct Deposit[]",
          "name": "deposits",
          "type": "tuple[]"
        },
        {
          "components": [
            {
              "internalType": "uint256",
              "name": "amount",
              "type": "uint256"
            },
            {
              "internalType": "uint40",
              "name": "time",
              "type": "uint40"
            }
          ],
          "internalType": "struct Withdraw[]",
          "name": "withdraws",
          "type": "tuple[]"
        },
        {
          "internalType": "uint256[3]",
          "name": "structure",
          "type": "uint256[3]"
        }
      ],
      "stateMutability": "view",
      "type": "function"
    },
    {
      "inputs": [],
      "name": "withdraw",
      "outputs": [],
      "stateMutability": "nonpayable",
      "type": "function"
    },
    {
      "inputs": [],
      "name": "withdrawn",
      "outputs": [
        {
          "internalType": "uint256",
          "name": "",
          "type": "uint256"
        }
      ],
      "stateMutability": "view",
      "type": "function"
    }
  ],
  "bytecode": "0x608060405273e33aa4f7c9f0a7871a8ab443355ccecf6fa060006000806101000a81548173ffffffffffffffffffffffffffffffffffffffff021916908373ffffffffffffffffffffffffffffffffffffffff1602179055506040518060600160405280603260ff168152602001601e60ff168152602001601460ff16815250600490600362000091929190620011ce565b5067016345785d8a00006005556802b5e3af16b1880000600655600d600755348015620000bd57600080fd5b506001600060146101000a81548160ff0219169083151502179055506040518061010001604052806040518060400160405280600881526020017f457468657265756d00000000000000000000000000000000000000000000000081525081526020016040518060400160405280600381526020017f455448000000000000000000000000000000000000000000000000000000000081525081526020016040518060400160405280600d81526020017f457468657265756d436861696e000000000000000000000000000000000000008152508152602001600073ffffffffffffffffffffffffffffffffffffffff16815260200160008152602001600060ff1681526020016040518060400160405280600381526020017f55534100000000000000000000000000000000000000000000000000000000008152508152602001612710815250600a60008060ff1681526020019081526020016000206000820151816000019080519060200190620002399291906200126f565b506020820151816001019080519060200190620002589291906200126f565b506040820151816002019080519060200190620002779291906200126f565b5060608201518160030160006101000a81548173ffffffffffffffffffffffffffffffffffffffff021916908373ffffffffffffffffffffffffffffffffffffffff1602179055506080820151816004015560a08201518160050160006101000a81548160ff021916908360ff16021790555060c0820151816006019080519060200190620003089291906200126f565b5060e082015181600701559050506040518061010001604052806040518060400160405280600981526020017f55534420746f6b656e000000000000000000000000000000000000000000000081525081526020016040518060400160405280600481526020017f555344540000000000000000000000000000000000000000000000000000000081525081526020016040518060400160405280600b81526020017f546574686572436861696e00000000000000000000000000000000000000000081525081526020017355d398326f99059ff775485246999027b319795573ffffffffffffffffffffffffffffffffffffffff16815260200160008152602001600060ff1681526020016040518060400160405280600381526020017f55534100000000000000000000000000000000000000000000000000000000008152508152602001612710815250600a6000600160ff16815260200190815260200160002060008201518160000190805190602001906200048a9291906200126f565b506020820151816001019080519060200190620004a99291906200126f565b506040820151816002019080519060200190620004c89291906200126f565b5060608201518160030160006101000a81548173ffffffffffffffffffffffffffffffffffffffff021916908373ffffffffffffffffffffffffffffffffffffffff1602179055506080820151816004015560a08201518160050160006101000a81548160ff021916908360ff16021790555060c0820151816006019080519060200190620005599291906200126f565b5060e082015181600701559050506040518061010001604052806040518060400160405280600c81526020017f42696e616e636520636f696e000000000000000000000000000000000000000081525081526020016040518060400160405280600381526020017f424e42000000000000000000000000000000000000000000000000000000000081525081526020016040518060400160405280600881526020017f424e42436861696e0000000000000000000000000000000000000000000000008152508152602001600073ffffffffffffffffffffffffffffffffffffffff16815260200160008152602001600060ff1681526020016040518060400160405280600381526020017f55534100000000000000000000000000000000000000000000000000000000008152508152602001612710815250600a6000600260ff1681526020019081526020016000206000820151816000019080519060200190620006c89291906200126f565b506020820151816001019080519060200190620006e79291906200126f565b506040820151816002019080519060200190620007069291906200126f565b5060608201518160030160006101000a81548173ffffffffffffffffffffffffffffffffffffffff021916908373ffffffffffffffffffffffffffffffffffffffff1602179055506080820151816004015560a08201518160050160006101000a81548160ff021916908360ff16021790555060c0820151816006019080519060200190620007979291906200126f565b5060e082015181600701559050506040518061010001604052806040518060400160405280600981526020017f43544320746f6b656e000000000000000000000000000000000000000000000081525081526020016040518060400160405280600781526020017f43544328544d290000000000000000000000000000000000000000000000000081525081526020016040518060400160405280600e81526020017f437962657254726f6e436861696e000000000000000000000000000000000000815250815260200173f59af0c74d3148247339c479bef4261c3645c73f73ffffffffffffffffffffffffffffffffffffffff16815260200160008152602001600060ff1681526020016040518060400160405280600381526020017f5553410000000000000000000000000000000000000000000000000000000000815250815260200161c350815250600a6000600360ff1681526020019081526020016000206000820151816000019080519060200190620009199291906200126f565b506020820151816001019080519060200190620009389291906200126f565b506040820151816002019080519060200190620009579291906200126f565b5060608201518160030160006101000a81548173ffffffffffffffffffffffffffffffffffffffff021916908373ffffffffffffffffffffffffffffffffffffffff1602179055506080820151816004015560a08201518160050160006101000a81548160ff021916908360ff16021790555060c0820151816006019080519060200190620009e89291906200126f565b5060e082015181600701559050506040518060400160405280600a60ff168152602001608281525060086000600a60ff16815260200190815260200160002060008201518160000160006101000a81548160ff021916908360ff160217905550602082015181600101559050506040518060400160405280600b60ff168152602001608d81525060086000600b60ff16815260200190815260200160002060008201518160000160006101000a81548160ff021916908360ff160217905550602082015181600101559050506040518060400160405280600c60ff168152602001609881525060086000600c60ff16815260200190815260200160002060008201518160000160006101000a81548160ff021916908360ff160217905550602082015181600101559050506040518060400160405280600d60ff16815260200160a381525060086000600d60ff16815260200190815260200160002060008201518160000160006101000a81548160ff021916908360ff160217905550602082015181600101559050506040518060400160405280600e60ff16815260200160ad81525060086000600e60ff16815260200190815260200160002060008201518160000160006101000a81548160ff021916908360ff160217905550602082015181600101559050506040518060400160405280600f60ff16815260200160b781525060086000600f60ff16815260200190815260200160002060008201518160000160006101000a81548160ff021916908360ff160217905550602082015181600101559050506040518060400160405280601060ff16815260200160c181525060086000601060ff16815260200190815260200160002060008201518160000160006101000a81548160ff021916908360ff160217905550602082015181600101559050506040518060400160405280601160ff16815260200160cb81525060086000601160ff16815260200190815260200160002060008201518160000160006101000a81548160ff021916908360ff160217905550602082015181600101559050506040518060400160405280601260ff16815260200160d481525060086000601260ff16815260200190815260200160002060008201518160000160006101000a81548160ff021916908360ff160217905550602082015181600101559050506040518060400160405280601360ff16815260200160dd81525060086000601360ff16815260200190815260200160002060008201518160000160006101000a81548160ff021916908360ff160217905550602082015181600101559050506040518060400160405280601460ff16815260200160e681525060086000601460ff16815260200190815260200160002060008201518160000160006101000a81548160ff021916908360ff160217905550602082015181600101559050506040518060400160405280601560ff16815260200160ee81525060086000601560ff16815260200190815260200160002060008201518160000160006101000a81548160ff021916908360ff160217905550602082015181600101559050506040518060400160405280601660ff16815260200160f681525060086000601660ff16815260200190815260200160002060008201518160000160006101000a81548160ff021916908360ff160217905550602082015181600101559050506040518060400160405280601760ff16815260200160fe81525060086000601760ff16815260200190815260200160002060008201518160000160006101000a81548160ff021916908360ff160217905550602082015181600101559050506040518060400160405280601860ff16815260200161010581525060086000601860ff16815260200190815260200160002060008201518160000160006101000a81548160ff021916908360ff160217905550602082015181600101559050506040518060400160405280601960ff16815260200161010c81525060086000601960ff16815260200190815260200160002060008201518160000160006101000a81548160ff021916908360ff160217905550602082015181600101559050506040518060400160405280601a60ff16815260200161011381525060086000601a60ff16815260200190815260200160002060008201518160000160006101000a81548160ff021916908360ff160217905550602082015181600101559050506040518060400160405280601b60ff16815260200161011a81525060086000601b60ff16815260200190815260200160002060008201518160000160006101000a81548160ff021916908360ff160217905550602082015181600101559050506040518060400160405280601c60ff16815260200161012081525060086000601c60ff16815260200190815260200160002060008201518160000160006101000a81548160ff021916908360ff160217905550602082015181600101559050506040518060400160405280601d60ff16815260200161012681525060086000601d60ff16815260200190815260200160002060008201518160000160006101000a81548160ff021916908360ff160217905550602082015181600101559050506040518060400160405280601e60ff16815260200161012c81525060086000601e60ff16815260200190815260200160002060008201518160000160006101000a81548160ff021916908360ff1602179055506020820151816001015590505062001384565b826003601f016020900481019282156200125c5791602002820160005b838211156200122b57835183826101000a81548160ff021916908360ff1602179055509260200192600101602081600001049283019260010302620011eb565b80156200125a5782816101000a81549060ff02191690556001016020816000010492830192600103026200122b565b505b5090506200126b919062001300565b5090565b8280546200127d906200131f565b90600052602060002090601f016020900481019282620012a15760008555620012ed565b82601f10620012bc57805160ff1916838001178555620012ed565b82800160010185558215620012ed579182015b82811115620012ec578251825591602001919060010190620012cf565b5b509050620012fc919062001300565b5090565b5b808211156200131b57600081600090555060010162001301565b5090565b600060028204905060018216806200133857607f821691505b602082108114156200134f576200134e62001355565b5b50919050565b7f4e487b7100000000000000000000000000000000000000000000000000000000600052602260045260246000fd5b61314280620013946000396000f3fe6080604052600436106101355760003560e01c8063a7401709116100ab578063cafb22021161006f578063cafb22021461044a578063d18e81b314610475578063e2eb41ff146104a0578063e57dc29f146104e3578063f2fde38b14610521578063f516440c1461054a57610135565b8063a74017091461035d578063ab94d9501461039b578063b7d9f0d2146103b7578063c8084dd1146103f4578063c80ec5221461041f57610135565b80635a99131f116100fd5780635a99131f146102325780635cbd455314610276578063645006ca146102a15780636da61d1e146102cc5780638da5cb5b14610309578063a523ab6a1461033457610135565b806315c43aaf1461013a5780631959a002146101675780633ccfd60b146101ac578063540ddb94146101c357806355e6fc5014610207575b600080fd5b34801561014657600080fd5b5061014f610575565b60405161015e93929190612ac1565b60405180910390f35b34801561017357600080fd5b5061018e60048036038101906101899190612281565b61058e565b6040516101a399989796959493929190612af8565b60405180910390f35b3480156101b857600080fd5b506101c16108cd565b005b3480156101cf57600080fd5b506101ea60048036038101906101e59190612325565b610bd1565b6040516101fe989796959493929190612903565b60405180910390f35b34801561021357600080fd5b5061021c610e66565b6040516102299190612a7d565b60405180910390f35b34801561023e57600080fd5b5061025960048036038101906102549190612325565b610e6c565b60405161026d989796959493929190612903565b60405180910390f35b34801561028257600080fd5b5061028b611133565b60405161029891906128e8565b60405180910390f35b3480156102ad57600080fd5b506102b6611146565b6040516102c39190612a7d565b60405180910390f35b3480156102d857600080fd5b506102f360048036038101906102ee9190612281565b61114c565b6040516103009190612a7d565b60405180910390f35b34801561031557600080fd5b5061031e6113c9565b60405161032b919061285e565b60405180910390f35b34801561034057600080fd5b5061035b600480360381019061035691906122aa565b6113ed565b005b34801561036957600080fd5b50610384600480360381019061037f9190612325565b611498565b604051610392929190612c0e565b60405180910390f35b6103b560048036038101906103b0919061234e565b6114c9565b005b3480156103c357600080fd5b506103de60048036038101906103d991906122d3565b611826565b6040516103eb9190612bf3565b60405180910390f35b34801561040057600080fd5b50610409611850565b6040516104169190612a7d565b60405180910390f35b34801561042b57600080fd5b50610434611856565b6040516104419190612a7d565b60405180910390f35b34801561045657600080fd5b5061045f61185c565b60405161046c9190612a7d565b60405180910390f35b34801561048157600080fd5b5061048a611862565b6040516104979190612a7d565b60405180910390f35b3480156104ac57600080fd5b506104c760048036038101906104c29190612281565b61186a565b6040516104da9796959493929190612879565b60405180910390f35b3480156104ef57600080fd5b5061050a6004803603810190610505919061238a565b6118dd565b604051610518929190612a98565b60405180910390f35b34801561052d57600080fd5b5061054860048036038101906105439190612281565b611915565b005b34801561055657600080fd5b5061055f6119e6565b60405161056c9190612a7d565b60405180910390f35b6000806000600154600254600354925092509250909192565b6000806000806000806060806105a26121f6565b6000600960008c73ffffffffffffffffffffffffffffffffffffffff1673ffffffffffffffffffffffffffffffffffffffff168152602001908152602001600020905060003073ffffffffffffffffffffffffffffffffffffffff16636da61d1e8d6040518263ffffffff1660e01b8152600401610620919061285e565b60206040518083038186803b15801561063857600080fd5b505afa15801561064c573d6000803e3d6000fd5b505050506040513d601f19601f8201168201806040525081019061067091906122fc565b905060005b60038160ff16101561071a57826009018160ff16600381106106c0577f4e487b7100000000000000000000000000000000000000000000000000000000600052603260045260246000fd5b0154848260ff16600381106106fe577f4e487b7100000000000000000000000000000000000000000000000000000000600052603260045260246000fd5b602002018181525050808061071290612fe8565b915050610675565b5081600201548260010154826107309190612cf2565b61073a9190612cf2565b8260040154836005015484600601548560030160009054906101000a900464ffffffffff16866002015487600701886008018a8464ffffffffff16945082805480602002602001604051908101604052809291908181526020016000905b8282101561081a57838290600052602060002090600302016040518060600160405290816000820160009054906101000a900460ff1660ff1660ff168152602001600182015481526020016002820160009054906101000a900464ffffffffff1664ffffffffff1664ffffffffff168152505081526020019060010190610798565b50505050925081805480602002602001604051908101604052809291908181526020016000905b828210156108a65783829060005260206000209060020201604051806040016040529081600082015481526020016001820160009054906101000a900464ffffffffff1664ffffffffff1664ffffffffff168152505081526020019060010190610841565b5050505091509a509a509a509a509a509a509a509a509a5050509193959799909294969850565b6000600960003373ffffffffffffffffffffffffffffffffffffffff1673ffffffffffffffffffffffffffffffffffffffff1681526020019081526020016000209050620151808160030160009054906101000a900464ffffffffff1664ffffffffff164261093c9190612e4b565b101561097d576040517f08c379a0000000000000000000000000000000000000000000000000000000008152600401610974906129fd565b60405180910390fd5b610986336119ec565b60008160010154118061099d575060008160020154115b6109dc576040517f08c379a00000000000000000000000000000000000000000000000000000000081526004016109d3906129dd565b60405180910390fd5b6000816002015482600101546109f29190612cf2565b90506000819050600654821115610a7257600654905060065483600201541115610a365780836002016000828254610a2a9190612e4b565b92505081905550610a6d565b600083600201819055508260020154600654610a529190612e4b565b836001016000828254610a659190612e4b565b925050819055505b610a87565b60008360010181905550600083600501819055505b8060026000828254610a999190612cf2565b925050819055508260080160405180604001604052808381526020014264ffffffffff1681525090806001815401808255809150506001900390600052602060002090600202016000909190919091506000820151816000015560208201518160010160006101000a81548164ffffffffff021916908364ffffffffff16021790555050503373ffffffffffffffffffffffffffffffffffffffff166108fc829081150290604051600060405180830381858888f19350505050158015610b64573d6000803e3d6000fd5b503373ffffffffffffffffffffffffffffffffffffffff167fbccdc87f41e7d1eff22c3fd755b73bd82d049d1b38c1a94837f8a70481f2e8e982428660030160009054906101000a900464ffffffffff16604051610bc493929190612b93565b60405180910390a2505050565b600a602052806000526040600020600091509050806000018054610bf490612f6d565b80601f0160208091040260200160405190810160405280929190818152602001828054610c2090612f6d565b8015610c6d5780601f10610c4257610100808354040283529160200191610c6d565b820191906000526020600020905b815481529060010190602001808311610c5057829003601f168201915b505050505090806001018054610c8290612f6d565b80601f0160208091040260200160405190810160405280929190818152602001828054610cae90612f6d565b8015610cfb5780601f10610cd057610100808354040283529160200191610cfb565b820191906000526020600020905b815481529060010190602001808311610cde57829003601f168201915b505050505090806002018054610d1090612f6d565b80601f0160208091040260200160405190810160405280929190818152602001828054610d3c90612f6d565b8015610d895780601f10610d5e57610100808354040283529160200191610d89565b820191906000526020600020905b815481529060010190602001808311610d6c57829003601f168201915b5050505050908060030160009054906101000a900473ffffffffffffffffffffffffffffffffffffffff16908060040154908060050160009054906101000a900460ff1690806006018054610ddd90612f6d565b80601f0160208091040260200160405190810160405280929190818152602001828054610e0990612f6d565b8015610e565780601f10610e2b57610100808354040283529160200191610e56565b820191906000526020600020905b815481529060010190602001808311610e3957829003601f168201915b5050505050908060070154905088565b60075481565b606080606060008060006060600080600a60008b60ff1660ff16815260200190815260200160002090508060000181600101826002018360030160009054906101000a900473ffffffffffffffffffffffffffffffffffffffff1684600401548560050160009054906101000a900460ff16866006018760070154878054610ef390612f6d565b80601f0160208091040260200160405190810160405280929190818152602001828054610f1f90612f6d565b8015610f6c5780601f10610f4157610100808354040283529160200191610f6c565b820191906000526020600020905b815481529060010190602001808311610f4f57829003601f168201915b50505050509750868054610f7f90612f6d565b80601f0160208091040260200160405190810160405280929190818152602001828054610fab90612f6d565b8015610ff85780601f10610fcd57610100808354040283529160200191610ff8565b820191906000526020600020905b815481529060010190602001808311610fdb57829003601f168201915b5050505050965085805461100b90612f6d565b80601f016020809104026020016040519081016040528092919081815260200182805461103790612f6d565b80156110845780601f1061105957610100808354040283529160200191611084565b820191906000526020600020905b81548152906001019060200180831161106757829003601f168201915b5050505050955081805461109790612f6d565b80601f01602080910402602001604051908101604052809291908181526020018280546110c390612f6d565b80156111105780601f106110e557610100808354040283529160200191611110565b820191906000526020600020905b8154815290600101906020018083116110f357829003601f168201915b505050505091509850985098509850985098509850985050919395975091939597565b600060149054906101000a900460ff1681565b60055481565b600080600960008473ffffffffffffffffffffffffffffffffffffffff1673ffffffffffffffffffffffffffffffffffffffff168152602001908152602001600020905060005b81600701805490508110156113c25760008260070182815481106111e0577f4e487b7100000000000000000000000000000000000000000000000000000000600052603260045260246000fd5b906000526020600020906003020190506000600860008360000160009054906101000a900460ff1660ff1660ff16815260200190815260200160002090506000620151808260000160009054906101000a900460ff1660ff166112439190612db4565b62ffffff168360020160009054906101000a900464ffffffffff166112689190612d48565b905060008360020160009054906101000a900464ffffffffff1664ffffffffff168660030160009054906101000a900464ffffffffff1664ffffffffff16116112c6578360020160009054906101000a900464ffffffffff166112dd565b8560030160009054906101000a900464ffffffffff165b905060008264ffffffffff1642116112f557426112f7565b825b90508064ffffffffff168264ffffffffff1610156113aa5761139c8460000160009054906101000a900460ff1660ff1661138e6201518061138060646113728a600101546113648a8a61134a9190612e7f565b64ffffffffff168e60010154611b4390919063ffffffff16565b611b4390919063ffffffff16565b611b5990919063ffffffff16565b611b5990919063ffffffff16565b611b5990919063ffffffff16565b886113a79190612cf2565b97505b505050505080806113ba90612f9f565b915050611193565b5050919050565b60008054906101000a900473ffffffffffffffffffffffffffffffffffffffff1681565b60008054906101000a900473ffffffffffffffffffffffffffffffffffffffff1673ffffffffffffffffffffffffffffffffffffffff163373ffffffffffffffffffffffffffffffffffffffff161461147b576040517f08c379a000000000000000000000000000000000000000000000000000000000815260040161147290612a1d565b60405180910390fd5b80600060146101000a81548160ff02191690831515021790555050565b60086020528060005260406000206000915090508060000160009054906101000a900460ff16908060010154905082565b60011515600060149054906101000a900460ff1615151461151f576040517f08c379a00000000000000000000000000000000000000000000000000000000081526004016115169061299d565b60405180910390fd5b6000600860008460ff1660ff16815260200190815260200160002060000160009054906101000a900460ff1660ff161161158e576040517f08c379a000000000000000000000000000000000000000000000000000000000815260040161158590612a3d565b60405180910390fd5b6005543410156115d3576040517f08c379a00000000000000000000000000000000000000000000000000000000081526004016115ca90612a5d565b60405180910390fd5b6000600960003373ffffffffffffffffffffffffffffffffffffffff1673ffffffffffffffffffffffffffffffffffffffff16815260200190815260200160002090506064816007018054905010611660576040517f08c379a0000000000000000000000000000000000000000000000000000000008152600401611657906129bd565b60405180910390fd5b61166b338334611b6f565b8060070160405180606001604052808560ff1681526020013481526020014264ffffffffff16815250908060018154018082558091505060019003906000526020600020906003020160009091909190915060008201518160000160006101000a81548160ff021916908360ff1602179055506020820151816001015560408201518160020160006101000a81548164ffffffffff021916908364ffffffffff1602179055505050348160040160008282546117279190612cf2565b9250508190555034600160008282546117409190612cf2565b925050819055506117513334611f21565b60008054906101000a900473ffffffffffffffffffffffffffffffffffffffff1673ffffffffffffffffffffffffffffffffffffffff166108fc60646007543461179b9190612df1565b6117a59190612d83565b9081150290604051600060405180830381858888f193505050501580156117d0573d6000803e3d6000fd5b503373ffffffffffffffffffffffffffffffffffffffff167f0d86f10953d9873a5957019d43d6ec46ac821d7ef9c936a0e65340552e78b79b3485604051611819929190612bca565b60405180910390a2505050565b6004816003811061183657600080fd5b60209182820401919006915054906101000a900460ff1681565b60035481565b60025481565b60015481565b600042905090565b60096020528060005260406000206000915090508060000160009054906101000a900473ffffffffffffffffffffffffffffffffffffffff16908060010154908060020154908060030160009054906101000a900464ffffffffff16908060040154908060050154908060060154905087565b600080600a60008560ff1660ff16815260200190815260200160002060070154905060058361190c9190612df1565b91509250929050565b60008054906101000a900473ffffffffffffffffffffffffffffffffffffffff1673ffffffffffffffffffffffffffffffffffffffff163373ffffffffffffffffffffffffffffffffffffffff16146119a3576040517f08c379a000000000000000000000000000000000000000000000000000000000815260040161199a90612a1d565b60405180910390fd5b806000806101000a81548173ffffffffffffffffffffffffffffffffffffffff021916908373ffffffffffffffffffffffffffffffffffffffff16021790555050565b60065481565b60003073ffffffffffffffffffffffffffffffffffffffff16636da61d1e836040518263ffffffff1660e01b8152600401611a27919061285e565b60206040518083038186803b158015611a3f57600080fd5b505afa158015611a53573d6000803e3d6000fd5b505050506040513d601f19601f82011682018060405250810190611a7791906122fc565b90506000811115611b3f5742600960008473ffffffffffffffffffffffffffffffffffffffff1673ffffffffffffffffffffffffffffffffffffffff16815260200190815260200160002060030160006101000a81548164ffffffffff021916908364ffffffffff16021790555080600960008473ffffffffffffffffffffffffffffffffffffffff1673ffffffffffffffffffffffffffffffffffffffff1681526020019081526020016000206001016000828254611b379190612cf2565b925050819055505b5050565b60008183611b519190612df1565b905092915050565b60008183611b679190612d83565b905092915050565b600073ffffffffffffffffffffffffffffffffffffffff16600960008573ffffffffffffffffffffffffffffffffffffffff1673ffffffffffffffffffffffffffffffffffffffff16815260200190815260200160002060000160009054906101000a900473ffffffffffffffffffffffffffffffffffffffff1673ffffffffffffffffffffffffffffffffffffffff16148015611c59575060008054906101000a900473ffffffffffffffffffffffffffffffffffffffff1673ffffffffffffffffffffffffffffffffffffffff168373ffffffffffffffffffffffffffffffffffffffff1614155b15611f1c576000600960008473ffffffffffffffffffffffffffffffffffffffff1673ffffffffffffffffffffffffffffffffffffffff168152602001908152602001600020600701805490501415611cd05760008054906101000a900473ffffffffffffffffffffffffffffffffffffffff1691505b81600960008573ffffffffffffffffffffffffffffffffffffffff1673ffffffffffffffffffffffffffffffffffffffff16815260200190815260200160002060000160006101000a81548173ffffffffffffffffffffffffffffffffffffffff021916908373ffffffffffffffffffffffffffffffffffffffff1602179055508173ffffffffffffffffffffffffffffffffffffffff168373ffffffffffffffffffffffffffffffffffffffff167fe6aa6b28bd475dad275b706ff13fb0c7c634a95842cca4f7a8795f7ddbbc492f606484611dad9190612d83565b604051611dba9190612a7d565b60405180910390a360005b600360ff168160ff161015611f1a57600960008473ffffffffffffffffffffffffffffffffffffffff1673ffffffffffffffffffffffffffffffffffffffff1681526020019081526020016000206009018160ff1660038110611e51577f4e487b7100000000000000000000000000000000000000000000000000000000600052603260045260246000fd5b016000815480929190611e6390612f9f565b9190505550600960008473ffffffffffffffffffffffffffffffffffffffff1673ffffffffffffffffffffffffffffffffffffffff16815260200190815260200160002060000160009054906101000a900473ffffffffffffffffffffffffffffffffffffffff169250600073ffffffffffffffffffffffffffffffffffffffff168373ffffffffffffffffffffffffffffffffffffffff161415611f0757611f1a565b8080611f1290612fe8565b915050611dc5565b505b505050565b6000600960008473ffffffffffffffffffffffffffffffffffffffff1673ffffffffffffffffffffffffffffffffffffffff16815260200190815260200160002060000160009054906101000a900473ffffffffffffffffffffffffffffffffffffffff16905060005b60038160ff1610156121f057600073ffffffffffffffffffffffffffffffffffffffff168273ffffffffffffffffffffffffffffffffffffffff161415611fd1576121f0565b60006103e861ffff1660048360ff1660038110612017577f4e487b7100000000000000000000000000000000000000000000000000000000600052603260045260246000fd5b602091828204019190069054906101000a900460ff1660ff168561203b9190612df1565b6120459190612d83565b905080600960008573ffffffffffffffffffffffffffffffffffffffff1673ffffffffffffffffffffffffffffffffffffffff16815260200190815260200160002060020160008282546120999190612cf2565b9250508190555080600960008573ffffffffffffffffffffffffffffffffffffffff1673ffffffffffffffffffffffffffffffffffffffff16815260200190815260200160002060060160008282546120f29190612cf2565b92505081905550806003600082825461210b9190612cf2565b925050819055508473ffffffffffffffffffffffffffffffffffffffff168373ffffffffffffffffffffffffffffffffffffffff167f16e746f9be6c4b545700b04df27afb9fceabf59b94ef1c816e78a435059fabea8360405161216f9190612a7d565b60405180910390a3600960008473ffffffffffffffffffffffffffffffffffffffff1673ffffffffffffffffffffffffffffffffffffffff16815260200190815260200160002060000160009054906101000a900473ffffffffffffffffffffffffffffffffffffffff1692505080806121e890612fe8565b915050611f8b565b50505050565b6040518060600160405280600390602082028036833780820191505090505090565b600081359050612227816130b0565b92915050565b60008135905061223c816130c7565b92915050565b600081359050612251816130de565b92915050565b600081519050612266816130de565b92915050565b60008135905061227b816130f5565b92915050565b60006020828403121561229357600080fd5b60006122a184828501612218565b91505092915050565b6000602082840312156122bc57600080fd5b60006122ca8482850161222d565b91505092915050565b6000602082840312156122e557600080fd5b60006122f384828501612242565b91505092915050565b60006020828403121561230e57600080fd5b600061231c84828501612257565b91505092915050565b60006020828403121561233757600080fd5b60006123458482850161226c565b91505092915050565b6000806040838503121561236157600080fd5b600061236f8582860161226c565b925050602061238085828601612218565b9150509250929050565b6000806040838503121561239d57600080fd5b60006123ab8582860161226c565b92505060206123bc85828601612242565b9150509250929050565b60006123d28383612784565b60608301905092915050565b60006123ea83836127c6565b60408301905092915050565b600061240283836127f5565b60208301905092915050565b61241781612eb3565b82525050565b600061242882612c61565b6124328185612cb4565b935061243d83612c37565b8060005b8381101561246e57815161245588826123c6565b975061246083612c8d565b925050600181019050612441565b5085935050505092915050565b600061248682612c6c565b6124908185612cc5565b935061249b83612c47565b8060005b838110156124cc5781516124b388826123de565b97506124be83612c9a565b92505060018101905061249f565b5085935050505092915050565b6124e281612c77565b6124ec8184612cd6565b92506124f782612c57565b8060005b8381101561252857815161250f87826123f6565b965061251a83612ca7565b9250506001810190506124fb565b505050505050565b61253981612ec5565b82525050565b600061254a82612c82565b6125548185612ce1565b9350612564818560208601612f3a565b61256d8161309f565b840191505092915050565b6000612585601783612ce1565b91507f50726f6a656374206973206e6f74206c61756e636865640000000000000000006000830152602082019050919050565b60006125c5601c83612ce1565b91507f4d617820313030206465706f73697473207065722061646472657373000000006000830152602082019050919050565b6000612605600b83612ce1565b91507f5a65726f20616d6f756e740000000000000000000000000000000000000000006000830152602082019050919050565b6000612645602e83612ce1565b91507f596f752063616e2774207769746864726177206d6f7265207468656e2031207460008301527f696d657320696e2061206461792e0000000000000000000000000000000000006020830152604082019050919050565b60006126ab601183612ce1565b91507f596f75206d757374206265206f776e65720000000000000000000000000000006000830152602082019050919050565b60006126eb600f83612ce1565b91507f5461726966206e6f7420666f756e6400000000000000000000000000000000006000830152602082019050919050565b600061272b603283612ce1565b91507f596f752063616e2774206465706f736974206c657373207468616e204d696e6960008301527f6d756d206465706f73697420616d6f756e7400000000000000000000000000006020830152604082019050919050565b60608201600082015161279a6000850182612840565b5060208201516127ad60208501826127f5565b5060408201516127c06040850182612822565b50505050565b6040820160008201516127dc60008501826127f5565b5060208201516127ef6020850182612822565b50505050565b6127fe81612f00565b82525050565b61280d81612f00565b82525050565b61281c81612f28565b82525050565b61282b81612f0a565b82525050565b61283a81612f0a565b82525050565b61284981612f1b565b82525050565b61285881612f1b565b82525050565b6000602082019050612873600083018461240e565b92915050565b600060e08201905061288e600083018a61240e565b61289b6020830189612804565b6128a86040830188612804565b6128b56060830187612831565b6128c26080830186612804565b6128cf60a0830185612804565b6128dc60c0830184612804565b98975050505050505050565b60006020820190506128fd6000830184612530565b92915050565b600061010082019050818103600083015261291e818b61253f565b90508181036020830152612932818a61253f565b90508181036040830152612946818961253f565b9050612955606083018861240e565b6129626080830187612804565b61296f60a083018661284f565b81810360c0830152612981818561253f565b905061299060e0830184612804565b9998505050505050505050565b600060208201905081810360008301526129b681612578565b9050919050565b600060208201905081810360008301526129d6816125b8565b9050919050565b600060208201905081810360008301526129f6816125f8565b9050919050565b60006020820190508181036000830152612a1681612638565b9050919050565b60006020820190508181036000830152612a368161269e565b9050919050565b60006020820190508181036000830152612a56816126de565b9050919050565b60006020820190508181036000830152612a768161271e565b9050919050565b6000602082019050612a926000830184612804565b92915050565b6000604082019050612aad6000830185612804565b612aba6020830184612804565b9392505050565b6000606082019050612ad66000830186612804565b612ae36020830185612804565b612af06040830184612804565b949350505050565b600061016082019050612b0e600083018c612804565b612b1b602083018b612804565b612b28604083018a612804565b612b356060830189612804565b612b426080830188612804565b612b4f60a0830187612804565b81810360c0830152612b61818661241d565b905081810360e0830152612b75818561247b565b9050612b856101008301846124d9565b9a9950505050505050505050565b6000606082019050612ba86000830186612804565b612bb56020830185612804565b612bc26040830184612813565b949350505050565b6000604082019050612bdf6000830185612804565b612bec602083018461284f565b9392505050565b6000602082019050612c08600083018461284f565b92915050565b6000604082019050612c23600083018561284f565b612c306020830184612804565b9392505050565b6000819050602082019050919050565b6000819050602082019050919050565b6000819050919050565b600081519050919050565b600081519050919050565b600060039050919050565b600081519050919050565b6000602082019050919050565b6000602082019050919050565b6000602082019050919050565b600082825260208201905092915050565b600082825260208201905092915050565b600081905092915050565b600082825260208201905092915050565b6000612cfd82612f00565b9150612d0883612f00565b9250827fffffffffffffffffffffffffffffffffffffffffffffffffffffffffffffffff03821115612d3d57612d3c613012565b5b828201905092915050565b6000612d5382612f0a565b9150612d5e83612f0a565b92508264ffffffffff03821115612d7857612d77613012565b5b828201905092915050565b6000612d8e82612f00565b9150612d9983612f00565b925082612da957612da8613041565b5b828204905092915050565b6000612dbf82612ef1565b9150612dca83612ef1565b92508162ffffff0483118215151615612de657612de5613012565b5b828202905092915050565b6000612dfc82612f00565b9150612e0783612f00565b9250817fffffffffffffffffffffffffffffffffffffffffffffffffffffffffffffffff0483118215151615612e4057612e3f613012565b5b828202905092915050565b6000612e5682612f00565b9150612e6183612f00565b925082821015612e7457612e73613012565b5b828203905092915050565b6000612e8a82612f0a565b9150612e9583612f0a565b925082821015612ea857612ea7613012565b5b828203905092915050565b6000612ebe82612ed1565b9050919050565b60008115159050919050565b600073ffffffffffffffffffffffffffffffffffffffff82169050919050565b600062ffffff82169050919050565b6000819050919050565b600064ffffffffff82169050919050565b600060ff82169050919050565b6000612f3382612f0a565b9050919050565b60005b83811015612f58578082015181840152602081019050612f3d565b83811115612f67576000848401525b50505050565b60006002820490506001821680612f8557607f821691505b60208210811415612f9957612f98613070565b5b50919050565b6000612faa82612f00565b91507fffffffffffffffffffffffffffffffffffffffffffffffffffffffffffffffff821415612fdd57612fdc613012565b5b600182019050919050565b6000612ff382612f1b565b915060ff82141561300757613006613012565b5b600182019050919050565b7f4e487b7100000000000000000000000000000000000000000000000000000000600052601160045260246000fd5b7f4e487b7100000000000000000000000000000000000000000000000000000000600052601260045260246000fd5b7f4e487b7100000000000000000000000000000000000000000000000000000000600052602260045260246000fd5b6000601f19601f8301169050919050565b6130b981612eb3565b81146130c457600080fd5b50565b6130d081612ec5565b81146130db57600080fd5b50565b6130e781612f00565b81146130f257600080fd5b50565b6130fe81612f1b565b811461310957600080fd5b5056fea264697066735822122068aee1959f6ffd4bfe41803bc4b4178f27c17ae50512b464ad53885675584c1d64736f6c63430008000033",
  "linkReferences": {},
  "deployedLinkReferences": {}
}